:020000040800F2
:1000000070370020C5320008C5060008C706000882
:10001000CB060008CF060008D30600080000000049
:10002000000000000000000000000000D7060008EB
:10003000D906000800000000DB060008DD06000805
:10004000DF320008DF320008DF320008DF3200084C
:10005000DF320008DF320008DF320008DF3200083C
:10006000DF320008DF320008DF320008DF3200082C
:10007000DF320008DF320008DF320008DF3200081C
:10008000DF320008DF320008DF320008DF3200080C
:10009000DF320008DF320008DF320008DF320008FC
:1000A000DF320008DF320008DF320008DF320008EC
:1000B000DF320008DF320008DF320008DF320008DC
:1000C000DF320008DF320008DF320008DF320008CC
:1000D000DF32000873300008951A0008DF3200088C
:1000E000DF320008DF320008DF320008DF320008AC
:1000F000DF320008DF320008DF320008DF3200089C
:10010000DF320008DF320008DF320008DF3200088B
:10011000DF320008DF320008DF320008DF3200087B
:10012000DF320008DF320008DF320008DF3200086B
:1001300000F002F800F055F80AA090E8000C8244A4
:100140008344AAF10107DA4501D100F04AF8AFF281
:10015000090EBAE80F0013F0010F18BFFB1A43F0A5
:10016000010318472092000040920000103A24BF7B
:1001700078C878C1FAD8520724BF30C830C144BF0C
:1001800004680C607047000000230024002500264E
:10019000103A28BF78C1FBD8520728BF30C148BFEA
:1001A0000B607047662907F00484642903F0A48774
:1001B000732904F01C85002070471FB504F0A9F9CD
:1001C00004F0E2FD04000020002106F0C5FC401C04
:1001D00060600020002106F0A9FCE0601FBD10B5A2
:1001E00010BD05F097F81146FFF7E7FF00F082F920
:1001F00005F03AFB03B4FFF7F2FF03BC02F0ACFEDC
:100200000B49D1F800C04A685CF8043B10681844F8
:1002100042F8040B8C4528BFA1F1DC0C8A4228BFB0
:10022000A1F1DC02C1F800C04A6020F00040704734
:100230000431002030B587B000F037FC01201023D6
:10024000002211460090104600F030FE01201023DD
:10025000024600210090184600F028FEE24800689F
:1002600007F0A4FA044622460B46E0A102A803F0D8
:1002700005FF0120102302AA00210090202000F099
:100280009FFD012010231A4619460090002000F01F
:100290000DFE01201023112219460090184600F08F
:1002A00005FED5480278D5A102A803F0E7FE01209B
:1002B000102302AA19460090202000F081FD0120A1
:1002C0001023122220210090002000F0EFFD0120D9
:1002D0001023132220210090184600F0E7FDC948A2
:1002E0000278C6A102A803F0C9FE0120102302AAC9
:1002F00020210090084600F063FD01201023022217
:1003000030210090002000F0D1FD012010230322B5
:1003100030210090184600F0C9FDBB48BBA102681F
:1003200002A803F0ABFE0120102302AA30210090A6
:10033000202000F045FD00F086FB07B030BDF0B591
:10034000A5B0B4480078401CB2490870084600784F
:100350000F282FDD00200870AF48006807F026FA4C
:1003600004460D46A048006807F020FA06460F46EE
:10037000AA4803C8CDE90A01A94803C8CDE9080184
:10038000A84800789F490978A74A12789A4B1B78A9
:10039000CDE90332CDE905109B48006832463B4663
:1003A000A2A1CDE9004502900CA803F067FE0CA8BD
:1003B00002F07CFC25B0F0BD10B5A5480078A0B1D6
:1003C000A4480078401CA349087008460078142807
:1003D00001DB002008709F4800780A2801DD012019
:1003E00000E000209C49086057E08B4801687E4887
:1003F000006807F0AAFA14D296480078401C954984
:10040000087008460078142801DB00200870914825
:1004100000780A2801DD012000E000208E490860F4
:100420003BE07548007880490978884214DD8948A6
:100430000078401C8749087008460078142801DBC2
:1004400000200870834800780A2801DD012000E0C0
:1004500000208149086020E06A480078D0B16948EE
:10046000007870490978884214DA7A480078401C8C
:100470007849087008460078142801DB00200870CD
:10048000744800780A2801DD012000E0002072494C
:10049000086002E000207049086010BD3EB56A4661
:1004A00001A902A801F00FF9019807F07FF921F0E6
:1004B000004104460022694B06F02CFE02D80120C0
:1004C0006749088066480088012812D1019807F022
:1004D0006DF921F0004104460022624B06F054FF02
:1004E00007D800205E49088047480068401C4649FC
:1004F00008603EBD08B502F0C5FC4FF4A06002F0F4
:1005000001FF4FF4E13002F036FD4FF4165002F0D7
:10051000F9FD00F015FE00F09BFE01F004F801F07B
:1005200034FA01F041FE01200C234FA2002100907B
:10053000084600F045FC00F086FA02F05AFB12E093
:1005400001F04BFA2849086001F0E7FAFFF7A6FF2F
:1005500001F0C6FEFFF730FFFFF7F1FEFFF76AFE7E
:10056000322002F0CCFCEBE730B59FB0054643A14A
:10057000284603F0D7FF04460CB91FB030BD06A8CB
:1005800004AB05AA42A10090204603F079FE03289F
:1005900000D0F2E702AB03AA47A106A803F070FE61
:1005A00002281ED1039806281AD2DFE800F01903AA
:1005B000070B111526490298087011E00020124916
:1005C00008600DE0029807F029F91349086007E078
:1005D00015490298087003E012490298087000BF9C
:1005E00000BF00BFC9E70000080000203A252E31F7
:1005F0006627430900000000000000203A2564201F
:100600002020000002000020040000203A25642081
:1006100020202000110000200C00002038000020C5
:100620003000002003000020010000207B312C2539
:100630002E31662C252E30662C25642C25642C2525
:10064000642C25642C25642C25662C25667D0000F1
:100650001000002018000020848121420000344056
:1006600012000020000049404E6574776F726B20C5
:10067000636F6E6E6563742E2E2E00002B4D5154E9
:10068000545552433A20227075626C697368220097
:10069000252A5B5E2C5D2C252A5B5E2C5D2C252A91
:1006A0005B5E2C5D2C252A5B5E2C5D2C25642C2545
:1006B000642C2573000000007B322C25642C2564FB
:1006C0007D000000704700BFFEE700BFFEE700BFEF
:1006D000FEE700BFFEE770477047704770470000B5
:1006E0000CB50020019000906C48006840F4803008
:1006F0006A49086000BF6948006800F40030009053
:100700000198401C0190009818B90198B0F5A06FAD
:10071000F1D16248006800F4003010B1012000906F
:1007200001E0002000900098012843D15C48006857
:1007300040F010005A4908600846006820F00300A5
:1007400008600846006840F00200086053484068AE
:10075000524948600846406848600846406840F48E
:10076000806048600846406820F47C104860084675
:10077000406840F4E81048600846006840F0807027
:10078000086000BF4548006800F000700028F9D0FC
:100790004248406820F003004049486008464068ED
:1007A00040F00200486000BF3C48406800F00C0088
:1007B0000828F9D10CBD10B5FFF792FF10BD10B598
:1007C0003648006840F00100344908600846406837
:1007D00034490840314948600846006832490840B9
:1007E0002E4908600846006820F48020086008460A
:1007F000406820F4FE0048604FF41F008860FFF757
:10080000DAFF4FF000602949086010BD10B50021E3
:1008100000200022214B5B6803F00C0121B1042968
:1008200006D0082928D107E0214B224C236027E07D
:100830001F4B204C236023E0184B5B6803F47010BF
:10084000164B5B6803F48032022303EB904022B91D
:10085000194B4343174C23600DE0104B5B6803F4C6
:10086000003323B1144B4343124C236003E0104B7D
:100870004343104C236003E00D4B0E4C236000BF3C
:1008800000BF064B5B68C3F303130C4CE15C094BE0
:100890001B68CB40074C236010BD000000100240D5
:1008A000002002400000FFF8FFFFF6FE08ED00E028
:1008B00000127A001C00002000093D0020000020EA
:1008C000012000BF011EA0F10102D0B2FAD1704791
:1008D00010B54021F94802F092FE2021F74802F0BD
:1008E0008CFEFFF7EDFF4021F44802F086FE10BDBC
:1008F00010B54021F14802F080FEFFF7E1FF202112
:10090000EE4802F07AFEFFF7DBFF2021EB4802F011
:1009100076FEFFF7D5FF10BD70B5044600251BE03D
:1009200004F0800020B14021E44802F066FE03E0BC
:100930004021E24802F063FEFFF7C2FF2021DF48BA
:1009400002F05BFEFFF7BCFF2021DC4802F057FEFF
:100950006006040E681CC5B2082DE1DB70BD10B541
:100960004021D64802F049FE2021D44802F045FE3D
:10097000FFF7A6FF4021D14802F041FEFFF7A0FF9C
:100980002021CE4802F03BFEFFF79AFF10BD70B564
:1009900005460C46FFF7E3FF7820FFF7BDFFFFF7A2
:1009A000A7FF1CB14020FFF7B7FF02E00020FFF7D0
:1009B000B3FFFFF79DFF2846FFF7AEFFFFF798FF55
:1009C000FFF786FF70BD10B504461CB90021A620B4
:1009D000FFF7DDFF012C03D10021A720FFF7D7FF90
:1009E00010BD10B504463CB90021C820FFF7CFFF69
:1009F0000021A120FFF7CBFF012C07D10021C0204F
:100A0000FFF7C5FF0021A020FFF7C1FF10BD10B503
:100A100000218D20FFF7BBFF00211420FFF7B7FF57
:100A20000021AF20FFF7B3FF10BD10B500218D20CE
:100A3000FFF7ADFF00211020FFF7A9FF0021AE2036
:100A4000FFF7A5FF10BD70B500242BE004F1B00145
:100A5000C8B20021FFF79BFF00210846FFF797FF70
:100A600000211020FFF793FFFFF779FF7820FFF7B1
:100A700053FFFFF73DFF4020FFF74EFFFFF738FF22
:100A8000002509E08E4901EBC501085DFFF744FF31
:100A9000FFF72EFF681CC5B2802DF3DBFFF718FFB0
:100AA000601CC4B2082CD1DB70BD00200CE000211A
:100AB00006E00022824B03EBC1031A544A1CD1B258
:100AC0008029F6DB421CD0B20828F0DB7047F0B575
:100AD0001546802801DA402900DBF0BD0C46CF170F
:100AE00001EB5777C7F3C702CF1701EB5777FF101A
:100AF000A1EBC707FEB20124B440E3B24DB1704C84
:100B000004EBC004A45C1C436D4F07EBC007BC544E
:100B10001AE06B4C04EBC004A45CE443684F07EBA1
:100B2000C007BC54664C04EBC004A45C1C43644F77
:100B300007EBC007BC54624C04EBC004A45CE44364
:100B40005F4F07EBC007BC5400BFC6E72DE9FF4F5E
:100B500084B081468A460020029083460698A0EB26
:100B600009040798A0EB0A06CDF80490CDF800A080
:100B7000002C01DD012705E00CB9002702E04FF051
:100B8000FF376442002E02DD4FF0010806E016B97F
:100B90004FF0000802E04FF0FF386642B44201DD3A
:100BA000254600E03546002003901EE0009AD1B2B1
:100BB000019AD0B2119AFFF78AFF0298204402905E
:100BC000B3440298A84205DD0298401B02900198A8
:100BD00038440190AB4504DDABEB050B0098404475
:100BE00000900398401C80B20390691C03988842CF
:100BF000DCDD08B0BDE8F08F2DE9F04306460F4676
:100C000090460025444643E03A1BD1B27219D0B257
:100C10000122FFF75CFF3A1BD1B2721BD0B2012256
:100C2000FFF755FF3A19D1B2721BD0B20122FFF77C
:100C30004EFF3A19D1B27219D0B20122FFF747FF25
:100C40007A19D1B23219D0B20122FFF740FF7A1BD4
:100C5000D1B23219D0B20122FFF739FF7A1BD1B2DB
:100C6000321BD0B20122FFF732FF7A19D1B2321B08
:100C7000D0B20122FFF72BFF6D1C05FB05F004FB32
:100C8000040008FB1809B9F1000F01DD641E6D1E98
:100C90006000604308FB08F18842B5DABDE8F083E4
:100CA0002DE9FE4F0646884692461C460196CDF831
:100CB0000080082C06D14FF0060923E0000801400F
:100CC000800000202046E31704EB5373DB1021461D
:100CD0004FEAE47C04EB5C7C4FEAEC0CA4EBCC0C1C
:100CE000BCF1000F02D04FF0010C01E04FF0000CFE
:100CF0006344224604EBD27C4FEA6C0C03FB0CF3FA
:100D000003F0FF09AAF12000C7B2002554E0082C27
:100D100007D107EB4700FE4901EB400010F805B092
:100D200013E00C2C07D107EB4700FA4901EB8000D8
:100D300010F805B009E0102C05D1F74800EB0710BA
:100D400010F805B001E0BDE8FE8F002002901CE025
:100D50000BF0010028B1414630460C9AFFF7B7FE70
:100D600009E00C9808B9012000E000200246414645
:100D70003046FFF7ACFE4FEA6B0B08F1010000F0C4
:100D8000FF080298401CC0B2029002980828DFDBDE
:100D9000701CC6B2082C0BD004EBD4714A10019918
:100DA000711A8A4204D1019E00980830C0B20090A6
:100DB000DDF80080681CC5B24D45A8DB00BFC2E766
:100DC0002DE9F84106460F4614461D46DDF81C8005
:100DD00013E0CDF8008022782B4639463046FFF7E5
:100DE0005FFF082D02D1B01DC6B205E0284605EB15
:100DF000D07106EB6101CEB2641C2078202802DBA2
:100E000020787E28E5DDBDE8F88110B50246012096
:100E100000E050430B1EA1F10104E1B2F9D110BD75
:100E20002DE9FF4F82B0064691461F46DDE90F4A85
:100E30004FF0000B082C01D14FF0020B002530E0E1
:100E4000781B401EC1B20A20FFF7DFFFB9FBF0F0AC
:100E50000A21B0FBF1F201FB1208B8F1000F0ED12C
:100E600004EBD4710BEB610101FB0561C8B22346B1
:100E70003022CDE900A40399FFF712FF0FE004EB45
:100E8000D4710BEB610101FB0561C8B208F13001BF
:100E9000CAB22346CDE900A40399FFF701FF681CFD
:100EA000C5B2BD42CCDB06B0BDE8F08F2DE9FC4FEA
:100EB0000746884616461C46BB46CDF804802046A9
:100EC000E21704EB5272D2102146E31704EB53737E
:100ED000DB10A4EBC3030BB1012300E000231A4491
:100EE000624392B20092002555E00C2C05D18B484C
:100EF00000EB461010F805A01BE0102C07D106EB04
:100F0000C600874901EBC00010F805A011E0202CB5
:100F100005D1844800EBC61010F805A009E0402C6C
:100F200005D1814800EB462010F805A001E0BDE89E
:100F3000FC8F4FF000091CE00AF0010028B1414687
:100F400038460B9AFFF7C3FD09E00B9808B901205A
:100F500000E00020024641463846FFF7B8FD4FEA60
:100F60006A0A08F1010000F0FF0809F1010000F031
:100F7000FF09B9F1080FDFDB781CC7B2A7EB0B0044
:100F8000A04204D15F4601980830C0B20190DDF85C
:100F90000480681C85B200988542A6DB00BFC6E7C6
:100FA00008B5804689469246002600274BE04FB997
:100FB0001023324618218020CDF800A0FFF776FFDD
:100FC000701CC6B2464522D14FF0000B1AE0012436
:100FD00010E000250AE0554800EBC400415D601EAA
:100FE000524A02EBC0004155681CC5B2082DF2DB25
:100FF000601CC4B2902CECDBFFF725FD0BF1010067
:1010000000F0FF0B4FEA09105845E0DC0026781C81
:10101000C7B2102F00D10027012410E000250AE0FC
:10102000424800EBC400415D601E404A02EBC00034
:101030004155681CC5B2082DF2DB601CC4B2902C6F
:10104000ECDBFFF700FDB2E72DE9FF4F05460E464A
:1010500017461C46DDF838904FF0000A0095B3465D
:101060002046E21704EB5272D2102146E31704EB3C
:101070005373DB10A4EBC3030BB1012300E0002387
:101080001A44D4B24FF0000856E0002003903BE031
:101090000D9810F80A0002900AF101001FFA80FA78
:1010A000002001901DE0029800F0010028B14A469E
:1010B00031462846FFF70BFD0AE0B9F1000F01D1D8
:1010C000012000E00020024631462846FFF7FFFCE1
:1010D000029840100290701CC6B20198401CC0B229
:1010E000019001980828DEDB681CC5B20098281A18
:1010F000B84204D1009D0BF1080000F0FF0B5E46E2
:101100000398401CC0B203900398B842C0DB0FE0C4
:10111000B27A0008DA7C00084E8100083E87000899
:101120003E890008DE8E00085E8F000880000020E7
:1011300008F1010000F0FF08A045A6DBBDE8FF8F25
:1011400008B50121042002F06BFE6020ADF800001C
:1011500010208DF8030003208DF8020069463B48FB
:1011600002F09EF96021394802F047FAC82001F0E8
:10117000C6FE0021AE20FFF70AFC00210846FFF75B
:1011800006FC00211020FFF702FC00214020FFF7A1
:10119000FEFB00218120FFF7FAFB0021CF20FFF7A3
:1011A000F6FB0021A120FFF7F2FB0021C820FFF78A
:1011B000EEFB0021A620FFF7EAFB0021A820FFF7A5
:1011C000E6FB00213F20FFF7E2FB0021D320FFF7E1
:1011D000DEFB00210846FFF7DAFB0021D520FFF7F0
:1011E000D6FB00218020FFF7D2FB0021D920FFF79A
:1011F000CEFB0021F120FFF7CAFB0021DA20FFF728
:10120000C6FB00211220FFF7C2FB0021DB20FFF705
:10121000BEFB00213020FFF7BAFB00212020FFF7A2
:10122000B6FB00210220FFF7B2FB00218D20FFF763
:10123000AEFB00211420FFF7AAFBFFF736FCFFF7F7
:1012400002FC0021AF20FFF7A2FB08BD000801400F
:1012500008B50121082002F0E3FD0220ADF80000EE
:1012600010208DF8030003208DF802006946034822
:1012700002F016F900200249086008BD000C014088
:1012800084812142002001E0411CC8B20A28FBDB16
:10129000704708B50121082002F0C2FD4FF400702C
:1012A000ADF8000003208DF8020014208DF8030033
:1012B00069468B4802F0F4F808BD08B50121082002
:1012C00002F0AEFD4FF40070ADF8000048208DF83C
:1012D00003006946824802F0E3F808BD10B5FFF745
:1012E000D8FF4FF480707E49103108604000091D1E
:1012F0000860FFF7C7FF4FF40070794910310860AC
:1013000010BD08B50121082002F08AFD4FF40070DD
:10131000ADF8000014208DF8030003208DF80200C2
:1013200069466F4802F0BCF84FF48070ADF80000D9
:1013300069466B4802F0B4F8FFF7D0FF08BD10B55E
:10134000FFF7A7FF4FF48070654910310860400037
:101350000860FFF797FF4FF400706149143108608F
:10136000FFF790FF4FF480705D4914310860FFF77C
:1013700089FF10BD10B5FFF78CFF4FF4007058497E
:1013800014310860FFF77EFF4FF48070544910312C
:101390000860FFF777FF4FF48070514914310860FF
:1013A000FFF770FF4FF400704D491031086010BD19
:1013B00010B5FFF76EFF4FF4007049491031086017
:1013C000FFF760FF4FF48070454910310860FFF768
:1013D00059FF4FF48070424914310860FFF752FF03
:1013E00010BD10B50024FFF754FF4FF400703C49C6
:1013F00010310860FFF746FFFFF75FFF4FF4807082
:10140000374910310860FFF73DFF35480830006864
:10141000C0F340244FF48070314914310860FFF765
:1014200031FF204610BD70B504460025FFF731FF9F
:1014300000BF26E004F0800028B14FF40070284976
:101440001031086004E04FF4007025491431086041
:10145000FFF718FF4FF48070214910310860FFF743
:1014600011FF4FF480701E4914310860072D02D11E
:101470004000091F08606006040EFFF703FF681CA8
:10148000C5B2082DD6DB70BD70B505460024FFF748
:1014900014FF002619E06006040E4FF48070104916
:1014A00010310860FFF7EEFE0D480830006800F4C8
:1014B000007008B1601CC4B24FF480700849143148
:1014C0000860FFF7DFFE701CC6B2082EE3DB15B91B
:1014D000FFF76EFF01E0FFF74DFF204670BD0000F3
:1014E000000C014070B505460C46FFF728FFA6200A
:1014F000FFF799FFFFF775FF08B1012070BD28467F
:10150000FFF791FFFFF76DFF08B10220F6E72046D5
:10151000FFF789FFFFF765FF08B10320EEE7FFF74C
:10152000DDFE0020EAE710B5FFF7EBFE0B213120CE
:10153000FFF7D8FF0E212C20FFF7D4FF08212D2024
:10154000FFF7D0FF80212E20FFF7CCFF00211E20C7
:10155000FFF7C8FF00211F20FFF7C4FF052120204F
:10156000FFF7C0FF002010BD70B504460025FFF74F
:10157000E6FEA620FFF757FFFFF733FF08B1012073
:1015800070BD2046FFF74FFFFFF72BFF08B1022089
:10159000F6E7FFF7D4FEA720FFF745FFFFF721FF8F
:1015A00008B10320ECE70020FFF76EFF0546FFF7C8
:1015B00095FE2846E4E72DE9FC4105460E46174610
:1015C000FFF7BDFEA620FFF72EFFFFF70AFF322030
:1015D000FFF729FFFFF705FFFFF7B1FEA720FFF791
:1015E00022FFFFF7FEFE00240EE0052C05D10020AF
:1015F000FFF74AFF0DF8040004E00120FFF744FF65
:101600000DF80400601CC4B2062CEEDBFFF766FE8A
:101610009DF800009DF8011000EB012000B2288029
:101620009DF802009DF8031000EB012000B230800D
:101630009DF804009DF8051000EB012000B23880F1
:10164000BDE8FC812DE9FE4304460D4616461F46C3
:1016500000202080288030809FB380461DE06A46AD
:1016600001A902A8FFF7A7FF2088BDF808100844C9
:1016700000B220802888BDF80410084400B22880F9
:101680003088BDF80010084400B23080052001F019
:1016900036FC08F1010000F0FF08B845DFDBB4F9C3
:1016A000000090FBF7F000B22080B5F9000090FB3D
:1016B000F7F000B22880B6F9000090FBF7F000B216
:1016C0003080BDE8FE832DE9F04F8DB00446894699
:1016D00092460A230AAA0BA90CA8FFF7B3FFBDF98B
:1016E00028104943BDF92C2002FB021005F0FBFC39
:1016F000CDE9000105F0F4F905460E46BDF93000CC
:1017000005F0F1FC07462A46334605F029FBCDE9F2
:10171000020105F059F80022334BCDE9040105F030
:1017200035FD324A324BCDE9060105F019FBCDE912
:10173000080105F027FA2060BDF930104943BDF9D2
:10174000282002FB021005F0CEFCCDE9000105F0D7
:10175000C7F905460E46BDF92C0005F0C4FC2A4623
:101760003346CDE9020105F0FBFA074605F02CF8F7
:1017700000221D4BCDE9040105F008FD1B4A1C4B5E
:10178000CDE9060105F0ECFACDE9080105F0FAF91A
:10179000C9F80000BDF930004043BDF92C1001FB31
:1017A0000100BDF9281090FBF1FB584605F09BFCA9
:1017B000CDE9040105F094F9054605F005F800228D
:1017C000094BCDE9060105F0E1FC0746074A084B45
:1017D00005F0C6FACDE9080105F0D4F9CAF8000011
:1017E0000DB0BDE8F08F0000008066401F85EB5112
:1017F000B81E094010B5A148006820F470409F4908
:1018000008600846006840F44050086000209C4989
:10181000086040F2EE2001F04EFB01209949C1F82A
:10182000AC010F2001F047FB10BD10B50024934818
:10183000006820F47040914908600846006840F450
:101840000040086004E0601CC4B2012001F033FBDA
:101850008B488038006808B1C82CF4DBC82C01DB49
:10186000012010BD002404E0601CC4B2012001F07E
:1018700022FB83488038006808B9F02CF4DBF02C98
:1018800001DB0120EDE70020EBE710B57B480068A5
:1018900020F47040794908600846006840F44050E0
:1018A0000860002076490860022001F004FB012056
:1018B0007449C1F8AC017148006820F470406F4968
:1018C00008600846006840F4004008600C2001F001
:1018D000F2FA6B488038006808B1012400E0002467
:1018E000322001F0E8FA204610BD70B5002601252F
:1018F00008E0FFF7CAFF0446E00140EA6600C6B20E
:10190000681CC5B2082DF4DD304670BD70B50446C4
:101910005A48006820F4704058490860084600683A
:1019200040F440500860012520E004F001066410F6
:101930006EB1002052490860022001F0BCFA01207B
:101940005049C1F8AC013C2001F0B5FA0CE0002090
:101950004B4908603C2001F0AEFA01204949C1F82A
:10196000AC01022001F0A7FA681CC5B2082DDCDD2D
:1019700070BD10B5FFF73EFFFFF757FFCC20FFF714
:10198000C5FF4420FFF7C2FF10BD08B501210920A3
:1019900002F046FA012002F014FB002002F0ADF93B
:1019A000002002F0ACFA4FF40060ADF80000102007
:1019B0008DF8030003208DF8020069462F48001FB0
:1019C00001F06EFD4FF400612C48001F01F015FE80
:1019D000FFF710FFFFF729FF08BD2DE9FC5FFFF7B8
:1019E000C8FFFFF707FFFFF720FFCC20FFF78EFFB0
:1019F000BE20FFF78BFFFFF778FF8246FFF775FFEA
:101A00000446072C07DDE043C4B26FEA0A0000F089
:101A1000FF0A002500E001252646300206B206EB4B
:101A20000A0006B2304605F0F9FE834605F0BEFE18
:101A30000022154BCDE9000105F0A8FB074605F093
:101A400023FB06B2304605F04EFB00220F4BCDE9DA
:101A5000000105F085F9074605F094F881460C4928
:101A6000484605F072FF01D24FF0000915B1484613
:101A7000BDE8FC9F89F00040FAE70000040C01403B
:101A8000AC812142008021420000E43F000024405C
:101A90000000A04210B540F225517A4802F00EF83D
:101AA000002839D0774801F089FFC4B2242C02D134
:101AB000002075490880744801880088401C724ADB
:101AC000108072484454007824281ED16F48007951
:101AD0004D281AD16D484079432816D10A2C14D1CB
:101AE00050216B4802F094FD6748028867496848B6
:101AF00002F049FD0120664981F85000002062494A
:101B00000880C821614802F083FD5F480088C8282A
:101B100002DBC8205C49088010BD2DE9F84F4FF06A
:101B200000085B4890F8500000287CD000205849FD
:101B300081F8500000BF9FE0B8F1000F05D155A11A
:101B4000534802F0EFFC044692E0641C51A1204689
:101B500002F0E8FC051EF7D0B8F1070F2ED2DFE83F
:101B600008F02D040B11181F26002A1B2146484897
:101B7000523002F008FD22E02A1B2146684602F09E
:101B800002FD1CE02A1B214641485D3002F0FBFCAF
:101B900015E02A1B21463E48683002F0F4FC0EE0B6
:101BA0002A1B21463A486A3002F0EDFC07E02A1B66
:101BB00021463748763002F0E6FC00E000BF00BF67
:101BC00033485D3004F010FF06460022134605F04E
:101BD0001FFA15D1FEF714FB052190FBF1F201FB72
:101BE000120B584605F07FFA81462B4A2B4B05F025
:101BF000CDFA06462A4A2B4B04F0F6FF2A4A03C2C6
:101C000023486A3004F0F0FE06460022134605F031
:101C1000FFF917D1FEF7F4FA052190FBF1F201FB71
:101C2000120B584600E02BE005F05DFA06461A4A12
:101C30001A4B05F0ABFA81461C4A1D4B04F0D4FF49
:101C40001C4A03C22C460120114981F851009DF81D
:101C50000000412803D1012081F8780007E09DF8B9
:101C60000000562803D10020094981F8780000BF00
:101C700008F1010000F0FF08B8F1060F7FF75CAF34
:101C8000BDE8F88F004400404200002079050020A4
:101C9000000500202C0000008DEDB5A0F7C6B03E79
:101CA000B728B34126793F4038000020616C21C835
:101CB00041E55D403000002008B50121082002F018
:101CC000AFF83020ADF8000010208DF8030003209D
:101CD0008DF802006946FE4801F0E2FB0120FD4953
:101CE0000860FD49C1F8940108BD10B5F8480068C6
:101CF00020F47000F64908600846006840F440107F
:101D000008600120F349091D0860F349C1F89001FA
:101D100001F0D1F80020EF49091D0860012001F011
:101D2000CAF80020EC49C1F8900110BD10B5E84890
:101D3000006820F47000E64908600846006840F436
:101D4000401008600020E3490860E349C1F89401AD
:101D5000012001F0B0F80120DE490860DE49C1F839
:101D6000940101F0A8F810BD10B50024D84800680F
:101D700020F47000D64908600846006840F400006E
:101D800008600120D349091D086001F094F8012082
:101D9000D149C1F8900101F08EF807E0601CC4B28F
:101DA000FA2C03DDFFF7C2FF012010BDC9487C38C3
:101DB00000680028F2D1C749086000BFF5E710B5F8
:101DC0000020C4490860C248006820F47000C0497F
:101DD00008600846006840F4401008600020BE49D2
:101DE000C1F89401012001F066F80120B9490860AA
:101DF00001F061F80020B849C1F8900110BD10B59C
:101E00000020B4490860B248006820F47000B0496E
:101E100008600846006840F4401008600120AE49A0
:101E2000C1F8940101F047F80120AA49086001F0C7
:101E300042F80020A849C1F8900110BD70B50446D1
:101E4000A348006820F47000A149086008460068B3
:101E500040F44010086000209E490860002516E00C
:101E6000E0099C49091D08606006040E012001F08C
:101E700022F801209849C1F8900101F01CF80020D7
:101E800094490860012001F016F8681CC5B2082DBD
:101E9000E6DB70BD70B5054600248D48006820F46F
:101EA00070008B4908600846006840F40000086034
:101EB000002616E0002087490860012000F0FBFFA3
:101EC00001208549C1F890016006040E81487C38E4
:101ED000006808B1601CC4B2012000F0ECFF701C67
:101EE000C6B2082EE6DB15B9FFF789FF01E0FFF760
:101EF00066FF204670BD2DE9F0410746884614462E
:101F00001D46FFF7F2FE3846FFF798FFFFF72CFF5C
:101F10004046FFF793FFFFF727FF47F00100FFF769
:101F20008DFFFFF721FF002605E00120FFF7B2FF3C
:101F3000A055701CC6B2681EB042F6DC0020FFF748
:101F4000A9FF691E6054FFF7F1FE0A2000F0D7FFD9
:101F5000BDE8F08170B504460D461646FFF7C5FE94
:101F60002046FFF76BFFFFF7FFFE2846FFF766FFEF
:101F7000FFF7FAFEFFF7B9FE44F00100FFF75EFF3E
:101F8000FFF7F2FE0020FFF785FF3070FFF7CEFE6F
:101F900070BD70B506460C461546FFF7A6FE3046E6
:101FA000FFF74CFFFFF7E0FE2046FFF747FFFFF784
:101FB000DBFE2846FFF742FFFFF7D6FEFFF7B6FE2F
:101FC0000A2000F09CFF70BD70B505460C46FFF777
:101FD0008CFEAE20FFF732FFFFF7C6FE00B111E026
:101FE0002846FFF72BFFFFF7BFFE00B10AE02046AF
:101FF000FFF724FFFFF7B8FE00B103E0FFF796FEFE
:10200000012070BDFFF792FE0020FAE770B504468C
:10201000FFF76BFEAE20FFF711FFFFF7A5FE00B143
:1020200019E02046FFF70AFFFFF79EFE00B112E01D
:10203000FFF75BFEAF20FFF701FFFFF795FE00B152
:1020400009E00020FFF726FF0546FFF7D8FEFFF75F
:102050006DFE284670BDFFF769FE0020FAE72DE906
:10206000F04782460C46174600253E46FFF73DFEE8
:10207000AE20FFF7E3FEFFF777FE00B146E05046E3
:10208000FFF7DCFEFFF770FE00B13FE0FFF72DFE2B
:10209000AF20FFF7D3FEFFF767FE00B136E030E078
:1020A0000020FFF7F7FE8046FFF789FE0020FFF7CC
:1020B000F1FE8146FFF783FE49EA082024F8250057
:1020C0000020FFF7E7FE8046FFF779FE002005E0DD
:1020D000000C01409081214200802142FFF7DAFE8E
:1020E0008146012E02D1FFF78AFE01E0FFF767FE6D
:1020F00049EA082004EB85014880701EC6B2681CBE
:10210000C5B2002ECCD1FFF711FE00BFFFF70EFEC7
:10211000BDE8F08770B505460C460020FFF776FF56
:102120000120FFF773FFFFF7E0FDAE20FFF786FE0B
:10213000FFF71AFE00B12AE02846FFF77FFEFFF7FF
:1021400013FE00B123E0FFF7D0FDAF20FFF776FECE
:10215000FFF70AFE00B11AE00120FFF79BFE207096
:102160000120FFF797FE60700120FFF793FEA0703B
:102170000120FFF78FFEE0700120FFF78BFE20713A
:102180000020FFF787FE6071FFF7D0FD00BFFFF76B
:10219000CDFD70BD10B540210920FFF715FF40218E
:1021A0000920FFF711FF10BD08B50121892001F0BA
:1021B00037FE0121484801F044FA0121082001F0CE
:1021C0002FFE4020ADF8000048208DF8030069463E
:1021D000424801F065F9FFF76FFDFFF7DBFFC02113
:1021E0000220FFF7F1FE00210320FFF7EDFE0021A2
:1021F0000420FFF7E9FE00210520FFF7E5FE00219E
:102200000620FFF7E1FE0F210820FFF7DDFE032186
:102210000920FFF7D9FE27210A20FFF7D5FE242148
:102220000C20FFF7D1FE24210D20FFF7CDFE7F21EA
:102230001020FFF7C9FE08BD70B504460D462A46BA
:102240002146AE20FFF7A5FE70BD70B504460D46D1
:102250002A462146AE20FFF77DFE70BDFEB506463C
:102260000C4600203060206002A9FFF7EEFF02A9B3
:102270000120FFF7EAFF06236A460721AE20FFF799
:102280003AFE9DF800502D043068284430609DF8D7
:1022900001502D023068284430609DF802503068AB
:1022A000284430609DF803502D04206828442060A5
:1022B0009DF804502D022068284420609DF80550A8
:1022C0002068284420603068C0F311003060206826
:1022D000C0F311002060FEBD00023000000C014080
:1022E00030B585B065480078401C644908700846E0
:1022F00000780F2801DC05B030BD00205F49087070
:102300005F480068012800D1F5E75E4800780028A2
:1023100044D101205B49087000242EE008E0681CCD
:1023200085B2642D01DB0025E5E7642000F0C3FDE4
:10233000534800680128F2D003A90720FFF7EAFEFE
:102340009DF80C008007800B9DF80D1040EA0120DD
:102350009DF80E1008434C4941F824009DF80F00E9
:102360008007800B9DF8101040EA01209DF81110A5
:102370000843464941F82400641C454800688442EB
:10238000CCDB44484449454A454BCDE90021029005
:102390003D4A3F4801683D4800F05AF900240EE0EC
:1023A000394904F1320051F8200041F8240037493E
:1023B00004F1320051F8200041F82400641CB4F507
:1023C000E17FEDDB4FF4E17425E000BF2C480068AD
:1023D0000128FBD003A90720FFF79CFE9DF80C0005
:1023E0008007800B9DF80D1040EA01209DF80E102B
:1023F0000843254941F824009DF80F008007800B11
:102400009DF8101040EA01209DF8111008431F4963
:1024100041F82400641CB4F5FA7FD6DB1D481E4940
:102420001E4A1F4BCDE900210290174A1848016847
:10243000164800F00DF91748007801281BD11648FE
:102440000068462817DD14480068782813DA134816
:10245000007801280FD11248006846280BDD10488B
:102460000068642807DA0C4800780E4908700C48A8
:1024700000780D49087000BF3DE700005A000020B9
:10248000188121425B000020140E00204406002029
:102490004800002058000020540000205000002078
:1024A0004C000020000000200200002030B50C4647
:1024B000012213E050F82230114605E04D1E50F87D
:1024C000255040F82150491E002904DD4D1E50F8CA
:1024D00025509D42F2DC40F82130521CA242E9DB3B
:1024E00030BDF0B503461546012217E051F82240F1
:1024F000104605E0461E51F8266041F82060401E57
:10250000002808DD53F82470461E51F8266053F861
:102510002660B742EEDC41F82040521CAA42E5DBBF
:10252000F0BD2DE9F04F05460C46924698462946E7
:1025300050462268FFF7D5FF4FF0FF3621E0D4F870
:1025400000B0701C2060771C18E055F82710701C34
:1025500010B94FF0FF3001E055F82600A1EB00095B
:10256000C14503DCC8F10000814506DA55F82710A3
:102570002268501C206045F822107F1C5F45E4DB78
:10258000761C2068B042DADC28462168FFF78EFF0F
:10259000BDE8F08FF0B505461C46059E01200027DA
:1025A0000F6030E052F82070B7422BDD52F820C0A7
:1025B000471E52F82770BC4524DD012300E05B1C58
:1025C000C718A74207DA52F8207000EB030C52F844
:1025D0002CC06745F3D052F8207000EB030C52F882
:1025E0002CC067450CDD0F680F2F09DAD1F800C049
:1025F0000CF101070F6045F82C005F1C384402E025
:10260000184400E0401C671E8742CBDCF0BD2DE97A
:10261000F84705460C4616461F46DDE90A9ADDF8DE
:1026200024803B46324621462846CDF80080FFF7FD
:10263000B1FF4B46324621462846FFF772FF20681D
:10264000504501DA206800E050462060BDE8F88778
:102650002DE9FF4FC6B088469946002045900024DA
:1026600006E0469850F82410459808444590641CAC
:102670004445F6DB4598B0FBF8F04590002408E0AF
:10268000469850F824104598081AFE4941F824004D
:10269000641C4445F4DB002417E0FA4850F8241089
:1026A0000246601C52F820000144A01C52F8200091
:1026B0000144E01C52F820000F183846F91707EBC8
:1026C0009171891042F82410641CB4F5F87FE4DBA2
:1026D00000240AE0EB49601C51F8200051F8241056
:1026E000401AE94941F82400641CB4F5F77FF1DD94
:1026F00000240EE0E44951F824200B46611C53F8F5
:102700002110501800EBD07149101A4642F82410DD
:10271000641CB4F5F77FEDDB00251BE0002043903F
:102720002C460BE0D84850F82410601BD74A32F8EA
:102730001020439801FB12004390641C681D8442E2
:10274000F0DB40F27A41439890FBF1F0CE4941F83A
:1027500025006D1CB5F5F47FE0DD002041900024DC
:1027600010E0C94850F82400002803DDC64850F89E
:10277000240003E0C44850F8240040424199084432
:102780004190641CB4F5F77FEBDD40F2EF11419806
:1027900090FBF1F0419005210822419840F2EF139F
:1027A000CDE901210090B84A40A912A8FFF72FFFF8
:1027B000002011904098022821DB01240BE012A890
:1027C00050F82410601E12AA52F82000091A11981D
:1027D00008441190641C40988442F0DB4098401EED
:1027E000119991FBF0F0119041F27071119891FBE9
:1027F000F0F15498016001215598017005E0A44959
:1028000054980160002155980170002407E012A837
:1028100050F82400801C30A941F82400641C409822
:102820008442F4DB00240CE0469850F824009549DB
:1028300041F82400489850F82400964941F82400B3
:10284000641C4445F0DB0020429000242DE0012070
:10285000449030A850F824A04FF080703F900AF1C7
:102860000500B0F5F77F1FDC0A3800281CDD05469F
:1028700011E0844850F825103F9881420ADA4498C4
:1028800008B1002044907F4850F825003F9021A8CF
:1028900040F824506D1C0AF105008542E9DB44989C
:1028A00010B94298401C4290641C40988442CEDB90
:1028B0004298022808DA7648C9F8000000215398A7
:1028C00001704AB0BDE8F08F00242EE06D4951F848
:1028D00024200B46611C53F821100A44A11C53F814
:1028E00021100A44E11C53F821105018C11700EBC5
:1028F000917189101A4642F82410664951F8242033
:102900000B46611C53F821100A44A11C53F82110F6
:102910000A44E11C53F821105018C11700EB9171C3
:1029200089101A4642F82410641CB4F5F87FCDDBF8
:10293000002004900026002404E0002005A941F8AE
:102940002400641C052CF8DB00240DE021A850F8BD
:102950002400B0F5FA7F06DD4D48C9F800000021DB
:1029600053980170ADE7641C42988442EEDB00246A
:10297000AFE04FF07F400D900C9021A9601C51F802
:10298000200051F82410401A0A2879DD21A850F8B7
:10299000245016E03B4850F825100C98814204DD85
:1029A000384850F825000C900A953A4850F8251000
:1029B0000D98814204DD374850F825000D900B95A5
:1029C0006D1C21A9601C51F82000A842E2DC601CAB
:1029D00051F820002F4951F8200021A951F8241066
:1029E0002C4A52F82110401A21A951F824200B99A1
:1029F000891A4843109021A9601C51F8200051F811
:102A00002410411A109890FBF1F021A951F82410DC
:102A1000204A52F821100844109011460B9851F8A2
:102A200020101098081A109021A9601C51F820005D
:102A3000144951F8200021A951F82410114A52F8E4
:102A40002110401A21A951F824200A99891A4843D3
:102A50000F9021A9601C51F8200051F82410411A50
:102A60000F9890FBF1F021A951F82410054A52F873
:102A7000211008440F9011460B9851F820100BE0DC
:102A800026E00000A41D0020E41500205E9100084F
:102A900019FCFFFF742500200F98081A0F900C995D
:102AA00010984843C01103900D990F984843C711DF
:102AB000002F0DDD052E0BDA039848B1039800EBCB
:102AC0008000800090FBF7F005A941F82600761CF5
:102AD000641C4298401EA0423FF74BAF314605A808
:102AE000FFF7E4FC304606EBD0714FEA610BBBF117
:102AF000010F0CDDABF1010105AA52F8211052F8CB
:102B00002B20881800EBD0714910049103E005A830
:102B100050F82B000490049802280DDD0498B82882
:102B20000ADA09490498085C0E900E98C9F800006A
:102B300001215398017005E00448C9F80000002104
:102B40005398017000BFBCE69C91000819FCFFFF80
:102B500008B50121042001F063F94FF48070ADF84D
:102B6000000010208DF8030003208DF80200694654
:102B70005E4800F095FC4FF480715C4800F03FFD2A
:102B80004FF47A7000F0BBF94FF47A7000F0B7F9A7
:102B90004FF48071554800F030FD08BD2DE9F04735
:102BA00006460F4614460025A846304601F0CCFCE8
:102BB00000F0FF094946304600F029FA14E06D1C88
:102BC0004B48007850B100204949087039464948BF
:102BD00001F0A8FC10B14FF0010806E0A54200D3B7
:102BE00003E0012000F08BF9E9E700BF4046BDE8B3
:102BF000F08700B5B5B0FFF7ABFF02E0642000F04E
:102C00007EF94FF4FA723CA13FA0FFF7C7FF0028FE
:102C1000F4D002E0642000F072F94FF4FA723DA1A2
:102C20003FA0FFF7BBFF0028F4D002E0642000F0D3
:102C300066F94FF4FA723DA13FA0FFF7AFFF0028FD
:102C4000F4D040A048A155A35BA2CDE9001061A13A
:102C500003A801F013FA02E0322000F050F94FF41B
:102C60007A7266A103A8FFF799FF0028F4D069A241
:102C700073A103A801F002FA02E0322000F03FF94C
:102C80004FF47A7273A103A8FFF788FF0028F4D0ED
:102C900035B000BD70B504460D46012014490870DA
:102CA0002A462146134801F06EFC70BD30B5B3B022
:102CB000044601206A490870C82101A801F0CAFC35
:102CC000204601F041FC05462B4652A265A101A811
:102CD000009401F0D3F901A801F036FCC5B22946F1
:102CE00001A800F094F933B030BD000000080140A5
:102CF0005F0000206C2D00202B4350494E3A20529B
:102D0000454144590000000041542B4350494E3F77
:102D1000000000002B43455245473A20302C31003B
:102D200041542B43455245473F0000002B43474148
:102D300054543A203100000041542B43474154542D
:102D40003F000000643935626461373965313962AA
:102D5000323762646336343433383038386162660F
:102D600066383436000000007468696E6769647004
:102D700040616E737A67666E7C736D6172745F70AA
:102D800065745F636F6C6C61725F646576696365BF
:102D90005F31357C307C4D4435000000736D6172CD
:102DA000745F7065745F636F6C6C61725F6465768D
:102DB0006963655F31350000616E737A67666E2EF8
:102DC000696F742E677A2E62616964756263652E1D
:102DD000636F6D0041542B4D515454434F4E4E3D43
:102DE000302C222573222C313838332C22257322A3
:102DF0002C222573222C2225732200002B4D5154A6
:102E0000545552433A2022636F6E6E222C302C3080
:102E10000000000024696F742F736D6172745F701D
:102E200065745F636F6C6C61725F6465766963651E
:102E30005F31352F757365722F6D73670000000069
:102E400041542B4D5154545355423D302C2225733F
:102E5000222C30002B4D5154545355423A2030000F
:102E60005C00002041542B4D5154545055423D308C
:102E70002C222573222C302C302C302C25642C2233
:102E80002573220010B56FF0040000F08AFA2E4876
:102E900000682E49B0FBF1F02D4908700846007813
:102EA00000EB4001C1EBC0104FF6FF7101EAC0001A
:102EB0002849088010BD0146254A12784A434FF040
:102EC000E0235A6100229A611A46126942F0010217
:102ED0001A6100BF4FF0E022106900F001021AB140
:102EE00000F48032002AF5D04FF0E022126922F07F
:102EF00001024FF0E0231A6100229A6170470146F7
:102F0000144A12884A434FF0E0235A6100229A6122
:102F10001A46126942F001021A6100BF4FF0E02226
:102F2000106900F001021AB100F48032002AF5D0D5
:102F30004FF0E022126922F001024FF0E0231A6103
:102F400000229A61704700001C00002000127A00E5
:102F50006000002062000020014600BF704700BFF3
:102F6000D14A128802F04002002AF9D0C2B2CE4BF8
:102F70001B1D1A80704710B586B00446012144F22B
:102F8000040000F04DFF4FF40070ADF81400032072
:102F90008DF8160018208DF8170005A9C34800F019
:102FA0007FFA4FF48060ADF8140004208DF817000C
:102FB00005A9BE4800F074FA25208DF80000032012
:102FC0008DF801008DF8020001208DF8030068469D
:102FD00000F09DF901940020ADF80800ADF80A005A
:102FE000ADF80C00ADF810000C20ADF80E0001A9F2
:102FF000AD4800F0E6FB012240F22551AA4800F05E
:1030000078FC0121A84800F068FC06B010BD10B59E
:103010000246002000BF0CE000BFA34B1B8803F05A
:103020004003002BF9D0135C9F4C241D2380431CCC
:10303000D8B28842F0DB00BF9B4B1B8803F04003F3
:10304000002BF9D00D23984C241D238000BF964BF4
:103050001B8803F04003002BF9D00A23924C241D57
:10306000238000BF904B1B8803F04003002BF9D056
:1030700010BD10B540F225518B4800F01FFD00280F
:103080003FD0894800F09AFCC4B28948008800F417
:10309000004018BB8648008800F48040B0B10A2C7C
:1030A00003D00020824908802BE08248FDF75CFABB
:1030B0007F4801787F48FFF7EDFD4FF4FA717D48B6
:1030C00001F0A6FA00207A4908801AE00D2C06D1FA
:1030D0007748008840F480407549088011E07448C2
:1030E0000088C0F30D0073490C5471480088401CDF
:1030F0006F49088008460088B0F5FA7F01DB0020A0
:10310000088010BD10B586B004460121042000F0EF
:1031100087FE0121480400F090FE0420ADF8140061
:1031200003208DF8160018208DF8170005A95F48B8
:1031300000F0B6F90820ADF8140004208DF817004F
:1031400005A95A4800F0ACF926208DF800000320AC
:103150008DF801008DF8020001208DF8030068460B
:1031600000F0D5F801940020ADF80800ADF80A0091
:10317000ADF80C00ADF810000C20ADF80E0001A960
:103180004D4800F01EFB012240F225514A4800F054
:10319000B0FB0121484800F0A0FB06B010BD10B5FF
:1031A0000246002000BF0CE000BF434B1B8803F029
:1031B0004003002BF9D0135C3F4C241D2380431C9B
:1031C000D8B28842F0DB00BF3B4B1B8803F04003C2
:1031D000002BF9D00D23384C241D238000BF364B23
:1031E0001B8803F04003002BF9D00A23324C241D26
:1031F000238000BF304B1B8803F04003002BF9D025
:1032000010BD10B586B004460121082000F008FE6C
:103210000121880400F011FE4FF48060ADF8140025
:1032200003208DF8160018208DF8170005A92348F3
:1032300000F036F901940020ADF80800ADF80A005E
:10324000ADF80C00ADF810000820ADF80E0001A993
:103250001B4800F0B6FA012240F22551184800F050
:1032600048FB0121164800F038FB06B010BD10B530
:103270000246002000BF0CE000BF114B1B8803F08A
:103280004003002BF9D0135C0D4C241D2380431CFC
:10329000D8B28842F0DB00BF094B1B8803F0400323
:1032A000002BF9D010BD000000380140000801409B
:1032B00068000020342E002000440040000C014033
:1032C000004800400948804709480047FEE7FEE7FC
:1032D000FEE7FEE7FEE7FEE7FEE7FEE7FEE7FEE7C6
:1032E00004480549054A064B70470000BF0700081F
:1032F0003101000870310020703700207033002049
:103300007033002031490143314A1160704770B574
:10331000002100230F22C47804B32D4C246804F448
:10332000E064C4F5E064210AC1F10403CA404478B2
:1033300004FA03F18478144021430901254C0678EE
:10334000A155047804F01F050124AC4005786D11E7
:10335000AD0005F1E025C5F8004109E0047804F06E
:103360001F050124AC401C4D0678761145F8264017
:1033700070BD1A4A0A400243154B1B1F1A60704762
:1033800039B1134A121D12680243114B1B1D1A60FA
:1033900006E00F4A121D126882430D4B1B1D1A6076
:1033A0007047042808D14FF0E021096941F0040179
:1033B0004FF0E022116107E04FF0E021096921F0B0
:1033C00004014FF0E0221161704700000000FA058F
:1033D0000CED00E000E400E080E100E080FFFF1F72
:1033E00010B50446CC48844208D10121042000F0E5
:1033F00031FD0021042000F02DFD46E0C748844245
:1034000008D10121082000F025FD0021082000F04E
:1034100021FD3AE0C248844208D10121102000F089
:1034200019FD0021102000F015FD2EE0BD4884425A
:1034300008D10121202000F00DFD0021202000F006
:1034400009FD22E0B848844208D10121402000F063
:1034500001FD0021402000F0FDFC16E0B34884424D
:1034600008D10121802000F0F5FC0021802000F02F
:10347000F1FC0AE0AE48844207D10121801500F03A
:10348000E9FC0021A01500F0E5FC10BD10B50121FC
:10349000084600F0DFFC0021012000F0DBFC10BD3D
:1034A0002DE9F041024600250026002000230024DB
:1034B000002791F803C00CF00F0591F803C00CF041
:1034C000100CBCF1000F03D091F802C04CEA0505C6
:1034D00091F800C0BCF1000F31D0146800202BE03F
:1034E0004FF0010C0CFA00F3B1F800C00CEA03062F
:1034F0009E4220D183004FF00F0C0CFA03F7BC431F
:1035000005FA03FC4CEA040491F803C0BCF1280F4F
:1035100006D14FF0010C0CFA00FCC2F814C00AE00E
:1035200091F803C0BCF1480F05D14FF0010C0CFA23
:1035300000FCC2F810C0401C0828D1D31460B1F8B8
:1035400000C0BCF1FF0F34DD546800202EE000F114
:10355000080C4FF0010808FA0CF3B1F800C00CEAAF
:1035600003069E4221D183004FF00F0C0CFA03F7A3
:10357000BC4305FA03FC4CEA040491F803C0BCF117
:10358000280F05D100F1080C08FA0CF8C2F81480D5
:1035900091F803C0BCF1480F07D100F1080C4FF0BF
:1035A000010808FA0CF8C2F81080401C0828CED395
:1035B0005460BDE8F0814FF6FF71018002218170F7
:1035C0000421C17070470246002093680B400BB184
:1035D000012000E0002070470146886880B27047F3
:1035E00002460020D3680B400BB1012000E0002010
:1035F00070470146C86880B27047016170474161F9
:1036000070470AB1016100E041617047C1607047D5
:103610004FF480320A4382618161826182698269EA
:10362000704702460020434B18684FF680731840DD
:1036300040EA021008433F4B186070473E49C8619A
:103640007047F0B50A46002300240021002500F051
:103650000046B6F1004F02D1364EF16901E0354E19
:103660007168C0F3034583B200F44016B6F5401FFD
:1036700008D121F070612F4E766826F070662D4FCC
:103680007E6012E000F48016B6F5801F06D1032696
:1036900006FA05F4A14341F0706106E0460D3601DB
:1036A00003FA06F6B14341F0706122B1460D3601CE
:1036B00003FA06F6314300F00046B6F1004F02D19E
:1036C0001C4EF16101E01B4E7160F0BD30B500226F
:1036D0008B071C0F0F2303FA04F2164B08338C10D0
:1036E00053F824309343134C08348D1044F825309C
:1036F00023468C1053F824308C07240F00FA04F46E
:1037000023430C4C08348D1044F8253030BD0A4951
:10371000DC3108607047000000080140000C0140E7
:10372000001001400014014000180140001C01403D
:1037300000200140000001400000204210B5044676
:10374000FB48844209D10121880300F083FB00215A
:103750004FF4804000F07EFB32E0F648844209D10D
:103760000121480400F083FB00214FF4003000F0F9
:103770007EFB25E0F048844209D10121880400F055
:1037800076FB00214FF4802000F071FB18E0EB483D
:10379000844209D10121C80400F069FB00214FF4E3
:1037A000002000F064FB0BE0E548844208D10121D1
:1037B000080500F05CFB00214FF4801000F057FB7F
:1037C00010BD2DE9F04786B005460E460024A246FE
:1037D00000BFA1460027B08900B100BF2F462C8A48
:1037E0004CF6FF700440F08804432C82AC894EF6FE
:1037F000F3100440B08831890843718908430443B9
:10380000AC81AC8A4FF6FF400440B0890443AC82DF
:1038100001A800F098FAC648874202D1DDF810A04E
:1038200001E0DDF80CA0A88900F4004040B10AEBEB
:10383000CA0000EB0A1031684900B0FBF1F807E05C
:103840000AEBCA0000EB0A1031688900B0FBF1F8FE
:103850006420B8FBF0F004012009642101FB108909
:10386000A88900F4004040B1322000EBC900B0FB51
:10387000F1F000F00700044308E0322000EB0910EB
:103880006421B0FBF1F000F00F0004432C8106B07E
:10389000BDE8F0874FF41651016000218180C1809E
:1038A00001810C21418100218181704710B50246C0
:1038B0000020108A4FF2FF0318400B884C882343E6
:1038C0008C882343CC8823431843108210BD0021E9
:1038D000018041808180C180704721B1828942F49A
:1038E0000052828104E082894DF6FF731A40828182
:1038F0007047F0B50346002400260025002040F65E
:103900006A17B94200D100BF1846C1F3421401F052
:103910001F06012707FA06F5012C01D10C3004E03F
:10392000022C01D1103000E014301AB107682F4387
:10393000076002E00768AF430760F0BD1AB1838AF1
:103940000B43838202E0838A8B4383827047028A1F
:103950004FF6F0731A400282028A0A4302827047CD
:1039600082894FF2FF731A40828182890A438281E1
:10397000704721B1828942F00202828104E082898B
:103980004FF6FD731A4082817047028A4FF6DF734B
:103990001A400282028A0A430282704721B1028AD7
:1039A00042F48042028204E0028A4BF6FF731A401E
:1039B00002827047C1F308028280704701468888FE
:1039C000C0F308007047818941F00101818170478F
:1039D000028BD2B20283028B42EA01220283704739
:1039E000028B02F47F420283028B0A4302837047F8
:1039F00021B1828A42F02002828204E0828A4FF65C
:103A0000DF731A408282704721B1828A42F010022D
:103A1000828204E0828A4FF6EF731A4082827047F6
:103A200021B1828A42F00802828204E0828A4FF643
:103A3000F7731A408282704721B1828942F40042B2
:103A4000828103E08289C2F30E028281704721B134
:103A5000828A42F40062828204E0828A4FF2FF731B
:103A60001A4082827047828A4FF6FB731A40828224
:103A7000828A0A438282704721B1828A42F002021E
:103A8000828204E0828A4FF6FD731A408282704778
:103A900002460020B1F5007F00D100BF13880B4023
:103AA0000BB1012000E00020704701F40072B2F574
:103AB000007F00D100BFCA430280704770B5024644
:103AC000002400230025002040F66A16B14200D1F0
:103AD00000BFC1F3421501F01F03012606FA03F3EC
:103AE000012D02D19689334006E0022D02D1168ABB
:103AF000334001E0968A33400C12012606FA04F4A2
:103B00001688344013B10CB1012000E0002070BDD4
:103B100010B50022002340F66A14A14200D100BF74
:103B20000A1201249440A3B2DC43048010BD0000BB
:103B3000003801400044004000480040004C004074
:103B400000500040DF48006840F00100DD49086097
:103B500008464068DC490840DA4948600846006881
:103B6000DA490840D74908600846006820F48020F8
:103B700008600846406820F4FE0048604FF41F00CB
:103B800088607047CF49096821F48031CD4A1160BF
:103B90001146096821F480211160B0F5803F03D0FF
:103BA000B0F5802F0ED106E0C649096841F4803196
:103BB000C44A116007E0C349096841F4A021C14A21
:103BC000116000E000BF00BF704710B50146002241
:103BD000002300204A11012A02D1BA4C236806E0D2
:103BE000022A02D1B74C236A01E0B64C636A01F0A5
:103BF0001F02012494401C400CB1012000E0002071
:103C000010BD38B5002000900024002500BF3120F1
:103C1000FFF7DBFF05460098401C00900098B0F5C8
:103C2000A06F01D0002DF2D03120FFF7CEFF08B1F8
:103C3000012400E00024204638BD01460020A14AAE
:103C4000106820F0F80040EAC10010607047A049F9
:103C500008607047024600209A4B586820F47C1098
:103C600042EA01031843974B586070479849086629
:103C7000704701460020934A506820F00300084333
:103C8000506070478F48406800F00C007047014654
:103C900000208C4A506820F0F000084350607047C4
:103CA00001460020874A506820F4E06008435060D5
:103CB000704701460020834A506820F4605040EA73
:103CC000C1005060704729B17E4A527A02437D4B51
:103CD0005A7204E07B4A527A82437A4B5A72704796
:103CE0007B49D8310860704701460020754A50680A
:103CF00020F440400843506070470021714A203250
:103D00001170704A82F82010012802D004280AD1CC
:103D100004E001216B4A2032117005E00521694A57
:103D20002032117000E000BF00BF70476949086091
:103D300070476449096A0143624A116270476549E4
:103D400044390860704730B5002100220024002368
:103D50005C4D6D6805F00C0121B1042905D00829DE
:103D600023D105E05C4D056022E05B4D05601FE05E
:103D7000544D6D6805F47012524D6D6805F4803431
:103D8000022505EB92421CB9544D554305600BE0EA
:103D90004C4D6D6805F400351DB1504D554305601F
:103DA00002E04D4D5543056002E04B4D056000BFFC
:103DB00000BF444D6D6805F0F0010909484D6B5C8A
:103DC0000568DD4045603F4D6D6805F4E061090A16
:103DD000434D6B5C4568DD4085603A4D6D6805F488
:103DE0006051C90A3E4D6B5C4568DD40C560354D8C
:103DF0006D6805F44041890B3A4D6B5CC568B5FBB5
:103E0000F3F5056130BD29B12E4A526902432D4BAD
:103E10005A6104E02B4A526982432A4B5A61704727
:103E200029B1284A92690243264B9A6104E0254A47
:103E300092698243234B9A61704729B1214AD26922
:103E40000243204BDA6104E01E4AD26982431D4BD3
:103E5000DA61704729B11B4AD2680243194BDA6014
:103E600004E0184AD2688243164BDA60704729B1E1
:103E7000144A12690243134B1A6104E0114A126991
:103E80008243104B1A6170471249403908607047ED
:103E90000F49C86470470B49C87170470948406AA8
:103EA00040F0807007494862704701460020054A8B
:103EB00092680A400AB1012000E0002070470149E1
:103EC00088727047001002400000FFF8FFFFF6FE06
:103ED000000042428004424200127A0000093D0084
:103EE0006A0000207A00002010B50120FFF7CCFF07
:103EF0000020FFF7C9FF10BD2A4908607047294913
:103F0000091F0860704727498431086070470146DF
:103F10000020254A10884FF67F4210400843224A6D
:103F200010807047014600201F4A10884FF68072AB
:103F3000104008431C4A1080704708B500220092C8
:103F4000194A2C3A0092009A02440092009A116099
:103F500008BD08B501460020009013482C38009099
:103F60000098084400900098008808BD0D489C30D7
:103F70000068C0B270470C480830008840F001006B
:103F800009490831088070470648A0300068C0B26F
:103F9000704705480830008840F0020002490831A7
:103FA0000880704704860D422C6C004010B501213A
:103FB0000807FFF75CFF00214FF08050FFF757FF25
:103FC00010BD2A49086270472849086170470146B8
:103FD0000020274A106820F0E00008431060704776
:103FE0002249A0310860704710B502460020204BDE
:103FF000186820F00300104318601E4B1B6843F044
:1040000004031C4C2360012901D130BF00E020BF14
:10401000184B1B6823F00403164C236010BD144892
:10402000006840F00400124908600846006840F04B
:10403000020008600F48006840F004000D49086065
:1040400000BF00BF30BF704701460020084A5268D9
:104050000A400AB1012000E00020704704490968C5
:1040600041EA8001024A11607047000000000E42E0
:104070000070004010ED00E0704700000FB41CB568
:10408000074B06AA7B4469460090059800F085FD21
:104090000020694600F094FD1CBC5DF814FB000094
:1040A000390B000070B50C460546012A05D028786A
:1040B000800600D5EA69002302E0012305E05B1CCD
:1040C000934202D2E05C0028F9D1A869E618C01A30
:1040D000A861286A184428622846AFF3008004E0EB
:1040E000D5E9012114F8010B9047B442F8D32846D2
:1040F000AFF3008070BD00002DE9F04106460024BA
:1041000010687529314616A510D0AFF3008000283D
:1041100002DA404213A507E031688A0701D512A5EB
:1041200002E0490704D511A5012401E0AFF30080A6
:1041300000210A2206F1240709E0B0FBF2FCB0FBE3
:10414000F2F302FB1C00303078541846491C00285A
:10415000F3D123462A463046BDE8F04100F0B0BA1C
:10416000000000002D0000002B00000020000000D7
:104170002DE9F0474FF0000A89460446C0F820A018
:104180002046E1688847002876D0252806D0D4E963
:1041900001219047206A401C2062F1E7E168204637
:1041A00000258847C4F81CA006460027C4F818A0BC
:1041B0002A2E09D0304602F000FB38B304EB870802
:1041C000303EC8F8186019E059F8041B204604EB8B
:1041D00087029161E1688847012F064618D1E0699E
:1041E000002820DA25F020051DE0D8F8180000EBA3
:1041F000800006EB40003038C8F818002046E1681F
:104200008847064602F0D9FA0028EED1012F0AD0DD
:104210002E2E08D12046E16888477F1C0646022FD3
:1042200045F02005C4DBA069002803DA404245F0D0
:104230000105A061E80701D025F01005B6B1A6F18F
:104240004100192802D8203645F400654A46314617
:10425000204625604D46FBF7A5FF58B1012806D042
:10426000ED1D25F0070000F1080989E704E005F1DC
:10427000040985E730468AE7206ABDE8F087000038
:104280000FB400B58DB010A9099000910B904FF0BC
:10429000FF300A9000200C900648784406900648AB
:1042A00078446A4607900F9909A800F0B9FC0DB050
:1042B0005DF814FBA3090000BB0900002DE9FF5FB6
:1042C0001D464FF0FF3B91464FF000085F46D5E991
:1042D0000146A96901987F1C8847296A8246884758
:1042E0000028F6D1BAF1FF3F0CD0002E24F4C064B0
:1042F00019DD600614D5BAF12B0F09D0BAF12D0FD4
:104300000ED103E0584604B0BDE8F09F44F4806449
:10431000A96901987F1C8847761E8246002E02DD1F
:10432000BAF1300F03D0B9F1000F26D032E0A969FD
:10433000761E01987F1C44F400748847002E824644
:1043400005DDBAF1780F06D0BAF1580F03D0B9F1F4
:10435000000F10D01EE0B9F1000F02D0B9F1100F1C
:1043600018D1A969761E01987F1C24F4007488472F
:104370008246102002E0082000E00A20814609E081
:10438000A96908FB0908761E01987F1C44F4007493
:1043900088478246002E05DD4946504600F02BFC3A
:1043A0000028EDDAE96901988847A00502D46FF08A
:1043B0000100A8E7E00725D1600613D5600502D506
:1043C000C8F1000000E0404629680A1D2A6009681B
:1043D000220501D5087015E0220701D5088011E0FB
:1043E00008600FE02868011D29600068210502D5DA
:1043F00080F8008006E0210702D5A0F8008001E0E7
:10440000C0F8008038467EE72DE9FF5F4FF00008D6
:104410009946144646469169D2E901A7DDF838B0BD
:1044200001988847054659EA0B0005D009E0A169C3
:104430000198761C88470546216A28468847002847
:10444000F5D1681C03D05FEACA7005D015E04FF0C3
:10445000FF3004B0BDE8F09F2068011D2160D0F856
:1044600000800AE05FEACA7001D108F8015BA16927
:10447000761C01987F1E88470546002F1ADD681CB0
:1044800018D0B9F1000F0DD0E81705EBD06042113C
:1044900020F01F0059F822102A1A012090400142F2
:1044A000E0D107E0BBF1000FDCD12846216A884744
:1044B0000028D7D0E16901988847BBF1000F07D1E8
:1044C000002E05DD5FEACA7002D1002188F80010D5
:1044D000A068B84203DDBBF1000F03D017B16FF045
:1044E0000100B6E73046B4E70B4910B5A1F17C02F4
:1044F0000A4CC2E93712372106E000EB104342F8BC
:104500002130074B00FB03400B1EA1F10101F4DC3D
:1045100010BD0120E8E70000A4300020E119D666B4
:10452000CD0D010030B505460B462A4613F8014B68
:1045300012F8010B08B1A042F8D01CB1002802D03B
:104540006D1CF1E7284630BD10B5431C02E010F8A1
:10455000011B71B18107FAD14FF0013202C88C1AE8
:104560008C4314EAC211F9D0C01A0A0603D0C01E47
:1045700010BDC01A10BD0A0401D0801E10BD090272
:10458000FCD0401E10BD032A40F2308010F0030C16
:1045900000F0158011F8013BBCF1020F624498BF96
:1045A00011F801CB00F8013B38BF11F8013BA2F133
:1045B000040298BF00F801CB38BF00F8013B11F0AE
:1045C000030300F0AF83083AC0F0088051F8043BC1
:1045D000083A51F804CBA0E80810F5E7121D5CBFBB
:1045E00051F8043B40F8043BAFF30080D20724BFEE
:1045F00011F8013B11F801CB48BF11F8012B24BF82
:1046000000F8013B00F801CB48BF00F8012B7047D0
:104610004FF000020429C0F0128010F0030C00F0EB
:104620001B80CCF1040CBCF1020F18BF00F8012B69
:10463000A8BF20F8022BA1EB0C0100F00DB85FEA37
:10464000C17C24BF00F8012B00F8012B48BF00F803
:10465000012B70474FF0000200B513469446964672
:10466000203922BFA0E80C50A0E80C50B1F1200185
:10467000BFF4F7AF090728BFA0E80C5048BF0CC033
:104680005DF804EB890028BF40F8042B08BF704791
:1046900048BF20F8022B11F0804F18BF00F8012B03
:1046A0007047704770477047704710B500F070FB57
:1046B000006810BD10B5044600F06AFB046010BD30
:1046C0002DE9F0470D4699469246044600F124082C
:1046D0000168880604D5E06921F01001216000E03E
:1046E0000120A84201DD471B00E00027A1697A19DB
:1046F00002EB0900081AA0612078C00602D4204607
:10470000AFF30080002608E0D4E901211AF8060082
:104710009047206A401C761C20624E45F4DB2078CE
:10472000C0060AD52046AFF3008006E0D4E9012197
:1047300030209047206A401C2062381EA7F10107F4
:10474000F4DC07E0D4E9012118F805009047206A5D
:10475000401C2062281EA5F10105F3DC2046AFF3C2
:1047600000802078000602D50220BDE8F0870120F5
:10477000FBE770472DE9FF4F0C461E464FF0FF3711
:104780008BB0D2E90001DDF860800A908A46C1F35F
:104790000A5505B93D46002108464FF00000BAF120
:1047A000000F00F4400005DA00EB80004FF44001F8
:1047B00001EA50004FEA9059B9F1010F00DDB94606
:1047C0000A9850EA4A000ED044F61050A5F2FF3580
:1047D00045432F14B8F1000F1ED07542291E1EDD6F
:1047E000C9F100021CE0B8F1010F4FF0000001D048
:1047F000302103E0F24305E02154401CB042FBDBD2
:1048000030460022002121540B99C1F80880C1E9EB
:1048100000200FB0BDE8F08FBD1B6D1CDEE74A46DF
:1048200000DA694206A800F0FFFC06AB93E8070037
:1048300003AB83E8070050460A9901F09CFA8DE823
:104840000700A0F500501F3800900398002D0ADDE6
:1048500042F21F014A460844002303A90390684618
:1048600001F048FD09E0A0F500504A461F3800233A
:1048700003A90390684601F067FD8DE80700000476
:10488000000C03D04FF0FF30410800E01046B8F1B3
:10489000000F03D00022009215461EE0751E05D4BD
:1048A00000F07AFA303262556D1EF9D5B346012216
:1048B000084302D000227F1C04E02078302801D178
:1048C00000227F1E002A099784D01DE0112D07DAEF
:1048D00000F062FA303262556D1C50EA0102F5D1E7
:1048E000084302D00098C8B10EE00021681E05E020
:1048F000235C625C63542254401E491C8142F7DBF6
:10490000AB46A81B401E0990002004F80B000B9832
:10491000099AC0F80880C0E9002B7AE711264FF009
:10492000000857E72DE9F04F88460446D21D22F0D3
:10493000070191B0D1E90001CDE90A0101F050FE73
:1049400002460B98C00F01D02D2007E02068810798
:1049500001D52B2002E0202101EAC000032A0990A2
:1049600001D0072A05DB03464146204600F062FAE3
:104970000BE12078800601D5E06900E00620B8F15F
:10498000650F814606D0B8F1660F18D0B8F1670FF1
:1049900070D131E00020B9F1110F009001DB11233B
:1049A00001E009F101030AAA01A90CA8FFF7E2FE40
:1049B000DDE90C70002609F10105834647E001207E
:1049C0004B4600904FF000470AAA01A90CA8FFF738
:1049D000D1FEDDE90DB00C995D46002610B909F154
:1049E00001000D18B9EB050003D4C0F1FF3609F141
:1049F0000105A5EB09002BE0B9F1010F01DA4FF039
:104A000001090020B9F1110F0090484601DD112382
:104A100000E003460AAA01A90CA8FFF7ABFEDDE9F6
:104A20000C704D4600268346207800070AD4AB451B
:104A300000DA5D4601A8012D04DD411911F8011CC1
:104A4000302907D04F4502DA17F1040F04DA0120AC
:104A500082460FE06D1EEEE7002F02DCED1B3E44A8
:104A600003E0781CA84200DD7D1CB81B00F1010AA0
:104A70004FF000472078000703D4AA4501DB4FF030
:104A8000FF3A0021B7F1004F0DF143088DF84310B4
:104A900024D002202B23002F01DA7F422D230A216C
:104AA000021EA0F1010000DC5FB197FBF1FC97FB57
:104AB000F1F201FB1C7C17460CF1300C08F801CD1B
:104AC000EEE7A8F1010003702188090501D5452111
:104AD00000E06521A0F1010800F8011C09980FA968
:104AE000A1EB0807FF1D00B10120411901EBEA709D
:104AF000A1693844081A401EA0612078C00602D47B
:104B00002046AFF30080099828B1D4E901219047ED
:104B1000206A401C20622078C00622D52046AFF3D0
:104B200000801EE0002E04DBB34502DD01A8805D9D
:104B300000E03020D4E901219047206A401C206227
:104B4000761CAAF101005FEA000A0AD100F01CF904
:104B5000C0680168405CD4E901219047206A401C8C
:104B60002062281EA5F10105DCDC07E0D4E9012163
:104B700018F8010B9047206A401C2062381EA7F1EC
:104B80000107F3DC2046AFF30080032011B041E6BB
:104B900001694A1C02610878704700B58FB0CDE901
:104BA00001310021059105497944CDE903101146F1
:104BB0006846FFF7DDFA0FB000BD0000E5FFFFFF1C
:104BC0000A6802F8010B0A60704710B5436913B117
:104BD000AFF3008001E0FFF765FA012010BD127805
:104BE00000F124010A7000224A700122EDE71168E9
:104BF0004FF0FF32E9E73A2800D2303820F02002A7
:104C0000412A01D3A2F13700884201D34FF0FF308F
:104C1000704700000268114413780160184670471D
:104C2000D1600549794451610449794411620021F8
:104C30001161114600F03EB9EDFFFFFFF5010000E4
:104C4000426842B1016811F8013B23B1521EC0E92C
:104C50000012184670470121C160881E70474268E3
:104C60005AB1C368016843B983688B4205D0491EB5
:104C7000521CC0E90012002070474FF0FF3070470F
:104C80000FB4002300B589B00CA900910B99CB603B
:104C9000214B7B440693214B7B44079304236FF005
:104CA0000042CDE901321E4A7A446B460892024620
:104CB000002002F0E0FE09B05DF814FB70B5064676
:104CC0004FF0FF3015460C46324686B00091CDE9D4
:104CD000010169460020049004A8FFF7D1FF0246B5
:104CE0000498211825B108B1084600E02046286044
:104CF000049800280DD0002A02DD0098884208D0D0
:104D00003246081B69460094CDE9010404A8FFF768
:104D1000B7FF06B070BD0000ABFFFFFFC3FFFFFF92
:104D20007701000010B5203AC0F00B80B1E81850B0
:104D3000203AA0E81850B1E81850A0E81850BFF485
:104D4000F5AF5FEA027C24BFB1E81850A0E8185024
:104D500044BF18C918C0BDE810405FEA827C24BF78
:104D600051F8043B40F8043B08BF7047D20728BF06
:104D700031F8023B48BF11F8012B28BF20F8023B55
:104D800048BF00F8012B7047004870472C310020C5
:104D9000004870470C31002030B5B0F10A024FEAEC
:104DA000900E71F100034EEA817EB0EB0E0061EBD4
:104DB00091014FEA101E4EEA017E10EB0E0041EB0E
:104DC00011114FEA102E4EEA016E10EB0E0041EB6E
:104DD00011214FEA104E4EEA014E10EB0E0041EB4E
:104DE0001141401841F100014FEAD00040EA417002
:104DF0004FEAD10110EB80054FEA810444EA907438
:104E000044EB01046D1944EB0404521BA3414FF021
:104E1000000348BF0A3200D530BD401C41F10001FB
:104E200030BD10B5044600F09BFA0068005D00F04C
:104E3000010010BD2DE9F0411F460446032601681C
:104E4000072A01F4006004DB08B116A505E016A5E9
:104E500003E008B115A500E015A521F010002060C1
:104E6000A069C01EA0610FB1401EA0612046AFF333
:104E700000804FB1D4E9012138469047206A401C98
:104E80002062C01C206206E0206AFAE7D4E9012112
:104E900015F8010B9047761EF8D22046AFF300803C
:104EA000BDE8F0814E414E006E616E00494E4600F5
:104EB000696E66002DE9F34F4FF0000A0C46564626
:104EC0008DB001200C9001F10C000B9062690B98E1
:104ED00001219047051E2DD0252D2CD0216A884711
:104EE000C0B162690B9801219047216A8847002868
:104EF000F7D16269411E0B98904700E0761CA169CA
:104F00000D988847216A88470028F7D1E1690D98F4
:104F10008847DBE7A1690D988847A842074601D179
:104F2000761CD3E7E1690D9888477F1C02D1BAF15E
:104F3000000F6FD06CE162690B9800273D4639463F
:104F400090472A2804D162690B98012190470125D6
:104F5000DFF8D08262690B9801219047A0F13001FF
:104F60000A290AD24745E5DC07EB870100EB410738
:104F7000303FDFD445F01005ECE7E90601D46FF0CF
:104F800000476C280AD04C2814D0682815D06A280D
:104F90000DD074281CD07A281AD01DE062690B98B5
:104FA000012190476C2802D045F0040514E045F03B
:104FB00002050DE045F020050AE062690B98012129
:104FC0009047682802D045F0080505E045F40065E3
:104FD00062690B9801219047C4E9015765283DD0CB
:104FE00019DC58287AD00CDC452837D004DC252879
:104FF00026D041289ED131E046282FD0472899D18C
:105000002CE05B2877D0612828D063287CD06428E6
:1050100023D15AE0F7E06F2848D008DC66281DD07D
:1050200067281BD0692821D06E2816D127E0702868
:1050300045D0732868D0752847D078280DD14DE029
:10504000A1690D988847252805463FF469AFE169B5
:105050000D9888476D1C3FF46AAFD9E00D9923463F
:105060006A466FF0010002F006FDC6E045F0400020
:1050700023464FF000026060A80736D43EE0E80700
:105080007FF447AF2068011D21600068290501D524
:1050900006701BE7290701D5068017E7A90703D586
:1050A000F117C0E9006111E706600FE745F0400025
:1050B00023464FF008026060A80716D41EE040F6B1
:1050C0000E0125EA0100606016E045F0400023462D
:1050D0004FF00A026060A80707D40FE045F04000D7
:1050E0006060A80708D5234610220D996FF00100D3
:1050F000AFF3008081E007E0102223460D996FF0A6
:105100000100FFF7DBF878E04FF0000963284F4615
:10511000C8464B46CB4602D05B2807D039E0207901
:10512000C00601D40120A060012732E06269D4F8F2
:105130000CB00B98012190475E2807D14FF0010970
:1051400049466269D4F80CB00B989047216939B987
:1051500000210A4603AB43F82120491C0829FADB49
:10516000D8B3216949B308F1010862690B9801219C
:1051700090475D28F4D1B9F1000F09D0002003A9B0
:1051800051F82020D24341F82020401C0828F7DBAA
:1051900003AB2069002820794FEA40701ED05B469F
:1051A0002246CDF80080CDE901970D9900286FF0D7
:1051B000010020DAAFF300801FE0C11703AA00EB63
:1051C000D1614B1121F01F0102EB8302411A1368D8
:1051D0000120884003431360C7E719E00D99224678
:1051E00000286FF00100009702DAAFF3008004E0BE
:1051F000FFF70AF901E0AFF3008000280ADA401C4B
:1052000006D10C9820B14FF0FF300FB0BDE8F08F01
:105210005046FAE7E90701D10AF1010A06440020E5
:105220000C9053E6CCCCCC0C2DE9F04781461646C9
:105230008AB0354878440DC88DE80D00324878446E
:10524000801C03AC0DC884E80D0041F69B30084477
:10525000372190FBF1F290FBF1F5A5F1800501FB00
:1052600012041B3C02D56442012000E00020DFF85C
:1052700098A080460027FA44AAF1BE0A0EE0E00793
:105280000AD03246684607EB470101230AEB810149
:1052900001F05AF88DE8070064107F1C002CEED155
:1052A000194F7F44AE3F19E0E80715D007EB041013
:1052B0000DF1180A90E80E008AE80E00C068F0426E
:1052C00001D1981908903246012306A903A801F0DC
:1052D0003BF803AB83E807006D10641C002DE3D19D
:1052E0004FF0010332466946B8F1000F03A802D01F
:1052F00001F000F801E001F027F8C9E90001C9F860
:1053000008200AB0BDE8F08734410000004870472B
:105310000C3100207546FFF7F9FFAE4605006946DF
:10532000534620F00700854618B020B5FDF7D8FF9A
:10533000BDE820404FF000064FF000074FF0000896
:105340004FF0000B21F00701AC46ACE8C009ACE817
:10535000C009ACE8C009ACE8C0098D467047000040
:1053600010B5FFF711FD001D10BD00BFED170000C7
:105370002DE9FF4F06468BB00878FF2806D0491C60
:105380002D2805D000244FF0000908E000200CE093
:105390000124F8E709EB8903491C00EB430908786D
:1053A000FF28F7D114B1C9F100008146107800251B
:1053B0002C46AA4629462D2801D02B2804D1521C60
:1053C0002D2813D0002082468B461078FF280FD05E
:1053D0004FF0000C0A21521CA5FB017804FB01814F
:1053E00005FB0C11C5194BEB0104EEE70120EAE7C0
:1053F000002108464FF00000BAF1000F02D000EB88
:1054000080004008C0F38157012F01DD4FF0FF37C6
:105410000E9955EA040009EB01080BD04FF0020980
:1054200018F5FA7F16DA4FEACA70002F706008DDAF
:10543000012007E04FEACA70C6E900B00FB0BDE82E
:10544000F08F00203060FFF7A3FCC0F80090182117
:10545000084616E0B8F5FA7F18DD002F02DAF748A3
:10546000784401E0F6487844D0E90010C6E900101D
:1054700040EACA707060FFF78BFCC0F800901421FE
:1054800008460FB0BDE8F04F02F090BA0021084680
:105490004FF00000B8F10001099002DAC7F10002F4
:1054A00000E03A4601DAC8F1000106A8FFF7BCFEA9
:1054B00006AB93E8070003AB83E8070044F23E0025
:1054C0005BEA04010090584604D144F21E012C46C8
:1054D0005D460091210C0904014306D10099240482
:1054E00044EA15442D041039009104F07F41014332
:1054F00006D10099240244EA15642D02083900916E
:1055000004F07041014306D10099240144EA157466
:105510002D01091F009104F04041014306D100997B
:10552000A40044EA9574AD00891E009104F0004186
:10553000084304D100986D196441401E00904FF05B
:1055400001033A466846B8F1000FCDE9014503A9C9
:1055500002DD00F00EFF01E000F0E1FEBAF1000F05
:1055600004460D4601D084F00044002108464FF067
:105570000000099940F2FF77484010F00C0F07D166
:1055800024F00040284303D0C4F30A50B84212D19B
:10559000FFF7FEFBC0F80090C4F30A50B8420AD1EE
:1055A000A8487844D0E90010C6E9001004F0004192
:1055B0000843706042E7C6E900543FE72DE9FF4F1A
:1055C0001F464FF0000A4FF0FF38454691B0D7E92B
:1055D0000146CDF83CA0FFF7D7FBC0680168405CEE
:1055E0001090B96912986D1C8847396A81468847BE
:1055F0000028F6D1B9F1FF3F0AD0002E24F4D06480
:1056000011DDB9F12B0F08D0B9F12D0F0BD102E04C
:10561000404615B013E744F48064B96912986D1CD4
:105620008847761E8146600504A901D52D2000E03B
:105630002B20002E01F1010B0DF130088DF8100028
:105640003FDDB9F1690F08D0B9F1490F05D0B9F1C3
:105650006E0F02D0B9F14E0F1CD13B4601A8009548
:1056600080E85002DDE912126FF0020002F007FA42
:10567000C11CCED10EE0B96912986D1C88478146D5
:105680001398761E44F4007405600F98401C002E99
:105690000F9016DDB9F1300FEDD0B9F1780F02D0CF
:1056A000B9F1580F0DD10F9801280AD13B46CDE929
:1056B0000054DDE91212001F029602F0DEF9C11C4F
:1056C000A7D1109989453ED144F0800406E0139992
:1056D000681CAAF1010A44F400740860B9696D1CE1
:1056E0001298761E884730288146F0D02BE010991A
:1056F000894505D1200603D4761E44F0800418E0C5
:10570000484601F05AF808B3761E0DF123018B4587
:1057100044F4007408D2A9F130000BF8010B200604
:1057200007D5AAF1010003E0200602D40AF1010026
:105730008246A00502D51399681C0860B9691298C1
:105740006D1C88478146002ED1DC53E0002E51DDD0
:10575000B9F1650F02D0B9F1450F4BD1A00549D57C
:10576000B9696D1C1298761E24F440748847002E87
:1057700081460CDD2B2804D0B9F12D0F07D144F45C
:105780008074B96912986D1C8847761E8146E005C1
:1057900001D52D2100E02B2108F8011BCDF8008058
:1057A00021E0761E0DF13901884544F400740CD2D5
:1057B000A9F1300010F0FF0088F8000002D1009934
:1057C000884509D908F1010806E0E00501D51E4821
:1057D00001E042F20F708246B96912986D1C884749
:1057E000814613980560002E04DD484600F0E5FF71
:1057F0000028D6D1F96912988847FF2053468BF8C4
:10580000000088F8000000200A900B9004AA0CA960
:105810000AA8FFF7ADFDA00502D46FF00100F8E67D
:1058200014F0240F12D0E0071CD13868DDE90A1209
:10583000031D3B600068C0E9001213E0483F000010
:105840003A3F0000FE3D0000F1D8FFFF0AA968467C
:1058500000F042FFE00705D13868009A011D396069
:10586000006802602846D4E610B50446AFF3008015
:105870002046BDE81040FAF7BDBC00004FF0013CE7
:1058800050F8042B51F8043B9A4221D1A2EB0C03AF
:10589000934313EACC1317D150F8042B51F8043B6F
:1058A0009A4215D1A2EB0C03934313EACC130BD10C
:1058B00050F8042B51F8043B9A4209D1A2EB0C0397
:1058C000934313EACC13DBD04FF00000704700BFC6
:1058D000D01A01BAB1FA81F101F0180122FA01F0EF
:1058E000CB40C1F12001DBB2C0B2C01A2CFA01F3E7
:1058F000D11A914311EAC311E6D170472DE9FF4F48
:105900001F464FF03C0987B04FF00042DDE914100C
:1059100001F10108DDF858A002EA40500390002090
:1059200005908346054604460490B969461E0898CA
:105930008847AAF1010A0290BAF1000F3BDD0298F4
:105940002E2815D01021FFF756F900282EDB4FF036
:10595000010B0599014317D0B9F1000F0BDB4A4643
:10596000C11700F0F5F905430C43A9F1040905E05E
:10597000012004900BE008B145F0010501200590DD
:10598000049820B9361D02E0049800B1361FB969A9
:10599000089808F101088847BBF1000FAAF1010A35
:1059A0000290C9D00999C1F80080C5E70298702813
:1059B00008D0502806D0F96908988847BBF1000F35
:1059C00014D04FE0002002900120BBF1000F0490A2
:1059D00009D0B969089808F101088847AAF10109B6
:1059E000B9F1000F07DCF969089888476FF00100EA
:1059F0000BB0BDE8F08F2B2804D02D280CD14FF030
:105A0000FF300490B969089808F101088847A9F1A6
:105A10000109B9F1000FE6DD411CE4D00A21FFF7CE
:105A2000EAF80028DFDB029908F1010801EB8101A7
:105A300000EB41000290B969089888470A21FFF7F6
:105A4000DAF8099AA9F10109B9F1000FC2F800804A
:105A500001DD0028E7DAF969089888470499029877
:105A600000FB016655EA040004D004F0404109003F
:105A700002D006E0039898E0A40044EA9574AD00D3
:105A8000B61E04F00041080002D16D196441761E73
:105A9000159810F0240F03D04FF00B095C4803E079
:105AA0004FF028096FF07D008246564507DAAAEBD1
:105AB00006018944B9F1410F01DD4FF04109012090
:105AC0000021A9F1010200F043F9024628400B46EB
:105AD0002140084301D0012100E00021501E029125
